{
  "contractName": "NFT1155",
  "abi": [
    {
      "inputs": [],
      "stateMutability": "nonpayable",
      "type": "constructor"
    },
    {
      "anonymous": false,
      "inputs": [
        {
          "indexed": true,
          "internalType": "address",
          "name": "account",
          "type": "address"
        },
        {
          "indexed": true,
          "internalType": "address",
          "name": "operator",
          "type": "address"
        },
        {
          "indexed": false,
          "internalType": "bool",
          "name": "approved",
          "type": "bool"
        }
      ],
      "name": "ApprovalForAll",
      "type": "event"
    },
    {
      "anonymous": false,
      "inputs": [
        {
          "indexed": true,
          "internalType": "address",
          "name": "previousOwner",
          "type": "address"
        },
        {
          "indexed": true,
          "internalType": "address",
          "name": "newOwner",
          "type": "address"
        }
      ],
      "name": "OwnershipTransferred",
      "type": "event"
    },
    {
      "anonymous": false,
      "inputs": [
        {
          "indexed": true,
          "internalType": "address",
          "name": "operator",
          "type": "address"
        },
        {
          "indexed": true,
          "internalType": "address",
          "name": "from",
          "type": "address"
        },
        {
          "indexed": true,
          "internalType": "address",
          "name": "to",
          "type": "address"
        },
        {
          "indexed": false,
          "internalType": "uint256[]",
          "name": "ids",
          "type": "uint256[]"
        },
        {
          "indexed": false,
          "internalType": "uint256[]",
          "name": "values",
          "type": "uint256[]"
        }
      ],
      "name": "TransferBatch",
      "type": "event"
    },
    {
      "anonymous": false,
      "inputs": [
        {
          "indexed": true,
          "internalType": "address",
          "name": "operator",
          "type": "address"
        },
        {
          "indexed": true,
          "internalType": "address",
          "name": "from",
          "type": "address"
        },
        {
          "indexed": true,
          "internalType": "address",
          "name": "to",
          "type": "address"
        },
        {
          "indexed": false,
          "internalType": "uint256",
          "name": "id",
          "type": "uint256"
        },
        {
          "indexed": false,
          "internalType": "uint256",
          "name": "value",
          "type": "uint256"
        }
      ],
      "name": "TransferSingle",
      "type": "event"
    },
    {
      "anonymous": false,
      "inputs": [
        {
          "indexed": false,
          "internalType": "string",
          "name": "value",
          "type": "string"
        },
        {
          "indexed": true,
          "internalType": "uint256",
          "name": "id",
          "type": "uint256"
        }
      ],
      "name": "URI",
      "type": "event"
    },
    {
      "inputs": [
        {
          "internalType": "address",
          "name": "account",
          "type": "address"
        },
        {
          "internalType": "uint256",
          "name": "id",
          "type": "uint256"
        }
      ],
      "name": "balanceOf",
      "outputs": [
        {
          "internalType": "uint256",
          "name": "",
          "type": "uint256"
        }
      ],
      "stateMutability": "view",
      "type": "function",
      "constant": true
    },
    {
      "inputs": [
        {
          "internalType": "address[]",
          "name": "accounts",
          "type": "address[]"
        },
        {
          "internalType": "uint256[]",
          "name": "ids",
          "type": "uint256[]"
        }
      ],
      "name": "balanceOfBatch",
      "outputs": [
        {
          "internalType": "uint256[]",
          "name": "",
          "type": "uint256[]"
        }
      ],
      "stateMutability": "view",
      "type": "function",
      "constant": true
    },
    {
      "inputs": [],
      "name": "cost",
      "outputs": [
        {
          "internalType": "uint256",
          "name": "",
          "type": "uint256"
        }
      ],
      "stateMutability": "view",
      "type": "function",
      "constant": true
    },
    {
      "inputs": [
        {
          "internalType": "address",
          "name": "account",
          "type": "address"
        },
        {
          "internalType": "address",
          "name": "operator",
          "type": "address"
        }
      ],
      "name": "isApprovedForAll",
      "outputs": [
        {
          "internalType": "bool",
          "name": "",
          "type": "bool"
        }
      ],
      "stateMutability": "view",
      "type": "function",
      "constant": true
    },
    {
      "inputs": [],
      "name": "owner",
      "outputs": [
        {
          "internalType": "address",
          "name": "",
          "type": "address"
        }
      ],
      "stateMutability": "view",
      "type": "function",
      "constant": true
    },
    {
      "inputs": [],
      "name": "publicSaleActive",
      "outputs": [
        {
          "internalType": "bool",
          "name": "",
          "type": "bool"
        }
      ],
      "stateMutability": "view",
      "type": "function",
      "constant": true
    },
    {
      "inputs": [],
      "name": "renounceOwnership",
      "outputs": [],
      "stateMutability": "nonpayable",
      "type": "function"
    },
    {
      "inputs": [
        {
          "internalType": "address",
          "name": "from",
          "type": "address"
        },
        {
          "internalType": "address",
          "name": "to",
          "type": "address"
        },
        {
          "internalType": "uint256[]",
          "name": "ids",
          "type": "uint256[]"
        },
        {
          "internalType": "uint256[]",
          "name": "amounts",
          "type": "uint256[]"
        },
        {
          "internalType": "bytes",
          "name": "data",
          "type": "bytes"
        }
      ],
      "name": "safeBatchTransferFrom",
      "outputs": [],
      "stateMutability": "nonpayable",
      "type": "function"
    },
    {
      "inputs": [
        {
          "internalType": "address",
          "name": "from",
          "type": "address"
        },
        {
          "internalType": "address",
          "name": "to",
          "type": "address"
        },
        {
          "internalType": "uint256",
          "name": "id",
          "type": "uint256"
        },
        {
          "internalType": "uint256",
          "name": "amount",
          "type": "uint256"
        },
        {
          "internalType": "bytes",
          "name": "data",
          "type": "bytes"
        }
      ],
      "name": "safeTransferFrom",
      "outputs": [],
      "stateMutability": "nonpayable",
      "type": "function"
    },
    {
      "inputs": [
        {
          "internalType": "address",
          "name": "operator",
          "type": "address"
        },
        {
          "internalType": "bool",
          "name": "approved",
          "type": "bool"
        }
      ],
      "name": "setApprovalForAll",
      "outputs": [],
      "stateMutability": "nonpayable",
      "type": "function"
    },
    {
      "inputs": [
        {
          "internalType": "bytes4",
          "name": "interfaceId",
          "type": "bytes4"
        }
      ],
      "name": "supportsInterface",
      "outputs": [
        {
          "internalType": "bool",
          "name": "",
          "type": "bool"
        }
      ],
      "stateMutability": "view",
      "type": "function",
      "constant": true
    },
    {
      "inputs": [
        {
          "internalType": "address",
          "name": "newOwner",
          "type": "address"
        }
      ],
      "name": "transferOwnership",
      "outputs": [],
      "stateMutability": "nonpayable",
      "type": "function"
    },
    {
      "inputs": [
        {
          "internalType": "uint256",
          "name": "",
          "type": "uint256"
        }
      ],
      "name": "uri",
      "outputs": [
        {
          "internalType": "string",
          "name": "",
          "type": "string"
        }
      ],
      "stateMutability": "view",
      "type": "function",
      "constant": true
    },
    {
      "inputs": [
        {
          "internalType": "address",
          "name": "",
          "type": "address"
        }
      ],
      "name": "whitelisted",
      "outputs": [
        {
          "internalType": "bool",
          "name": "",
          "type": "bool"
        }
      ],
      "stateMutability": "view",
      "type": "function",
      "constant": true
    },
    {
      "inputs": [
        {
          "internalType": "address",
          "name": "to",
          "type": "address"
        },
        {
          "internalType": "uint256",
          "name": "amountIds",
          "type": "uint256"
        },
        {
          "internalType": "uint256",
          "name": "amount",
          "type": "uint256"
        }
      ],
      "name": "mint",
      "outputs": [],
      "stateMutability": "payable",
      "type": "function",
      "payable": true
    },
    {
      "inputs": [
        {
          "internalType": "address",
          "name": "to",
          "type": "address"
        },
        {
          "internalType": "uint256",
          "name": "id",
          "type": "uint256"
        },
        {
          "internalType": "uint256",
          "name": "amount",
          "type": "uint256"
        }
      ],
      "name": "mintCertainMintedToken",
      "outputs": [],
      "stateMutability": "payable",
      "type": "function",
      "payable": true
    },
    {
      "inputs": [],
      "name": "pause",
      "outputs": [],
      "stateMutability": "nonpayable",
      "type": "function"
    },
    {
      "inputs": [],
      "name": "start",
      "outputs": [],
      "stateMutability": "nonpayable",
      "type": "function"
    },
    {
      "inputs": [
        {
          "internalType": "address",
          "name": "_user",
          "type": "address"
        }
      ],
      "name": "whitelistUser",
      "outputs": [],
      "stateMutability": "nonpayable",
      "type": "function"
    }
  ],
  "bytecode": "0x608060405266038d7ea4c680006004556014600555600560065560016007556001600860006101000a81548160ff0219169083151502179055503480156200004657600080fd5b5060405180608001604052806052815260200162003f176052913962000072816200009960201b60201c565b506200009362000087620000ae60201b60201c565b620000b660201b60201c565b620004dd565b8060029081620000aa9190620003f6565b5050565b600033905090565b6000600360009054906101000a900473ffffffffffffffffffffffffffffffffffffffff16905081600360006101000a81548173ffffffffffffffffffffffffffffffffffffffff021916908373ffffffffffffffffffffffffffffffffffffffff1602179055508173ffffffffffffffffffffffffffffffffffffffff168173ffffffffffffffffffffffffffffffffffffffff167f8be0079c531659141344cd1fd0a4f28419497f9722a3daafe3b4186f6b6457e060405160405180910390a35050565b600081519050919050565b7f4e487b7100000000000000000000000000000000000000000000000000000000600052604160045260246000fd5b7f4e487b7100000000000000000000000000000000000000000000000000000000600052602260045260246000fd5b60006002820490506001821680620001fe57607f821691505b602082108103620002145762000213620001b6565b5b50919050565b60008190508160005260206000209050919050565b60006020601f8301049050919050565b600082821b905092915050565b6000600883026200027e7fffffffffffffffffffffffffffffffffffffffffffffffffffffffffffffffff826200023f565b6200028a86836200023f565b95508019841693508086168417925050509392505050565b6000819050919050565b6000819050919050565b6000620002d7620002d1620002cb84620002a2565b620002ac565b620002a2565b9050919050565b6000819050919050565b620002f383620002b6565b6200030b6200030282620002de565b8484546200024c565b825550505050565b600090565b6200032262000313565b6200032f818484620002e8565b505050565b5b8181101562000357576200034b60008262000318565b60018101905062000335565b5050565b601f821115620003a65762000370816200021a565b6200037b846200022f565b810160208510156200038b578190505b620003a36200039a856200022f565b83018262000334565b50505b505050565b600082821c905092915050565b6000620003cb60001984600802620003ab565b1980831691505092915050565b6000620003e68383620003b8565b9150826002028217905092915050565b62000401826200017c565b67ffffffffffffffff8111156200041d576200041c62000187565b5b620004298254620001e5565b620004368282856200035b565b600060209050601f8311600181146200046e576000841562000459578287015190505b620004658582620003d8565b865550620004d5565b601f1984166200047e866200021a565b60005b82811015620004a85784890151825560018201915060208501945060208101905062000481565b86831015620004c85784890151620004c4601f891682620003b8565b8355505b6001600288020188555050505b505050505050565b613a2a80620004ed6000396000f3fe6080604052600436106101135760003560e01c80638456cb59116100a0578063be9a655511610064578063be9a65551461036e578063d936547e14610385578063e985e9c5146103c2578063f242432a146103ff578063f2fde38b1461042857610113565b80638456cb59146102bc5780638da5cb5b146102d3578063a22cb465146102fe578063bb23e26d14610327578063bc8893b41461034357610113565b8063156e29f6116100e7578063156e29f6146101fa5780632eb2c2d6146102165780634a4c560d1461023f5780634e1273f414610268578063715018a6146102a557610113565b8062fdd58e1461011857806301ffc9a7146101555780630e89341c1461019257806313faede6146101cf575b600080fd5b34801561012457600080fd5b5061013f600480360381019061013a91906121ac565b610451565b60405161014c91906121fb565b60405180910390f35b34801561016157600080fd5b5061017c6004803603810190610177919061226e565b610519565b60405161018991906122b6565b60405180910390f35b34801561019e57600080fd5b506101b960048036038101906101b491906122d1565b6105fb565b6040516101c6919061238e565b60405180910390f35b3480156101db57600080fd5b506101e461068f565b6040516101f191906121fb565b60405180910390f35b610214600480360381019061020f91906123b0565b610695565b005b34801561022257600080fd5b5061023d60048036038101906102389190612600565b610a55565b005b34801561024b57600080fd5b50610266600480360381019061026191906126cf565b610af6565b005b34801561027457600080fd5b5061028f600480360381019061028a91906127bf565b610b59565b60405161029c91906128f5565b60405180910390f35b3480156102b157600080fd5b506102ba610c72565b005b3480156102c857600080fd5b506102d1610c86565b005b3480156102df57600080fd5b506102e8610cfa565b6040516102f59190612926565b60405180910390f35b34801561030a57600080fd5b506103256004803603810190610320919061296d565b610d24565b005b610341600480360381019061033c91906123b0565b610d3a565b005b34801561034f57600080fd5b50610358610fbb565b60405161036591906122b6565b60405180910390f35b34801561037a57600080fd5b50610383610fce565b005b34801561039157600080fd5b506103ac60048036038101906103a791906126cf565b611043565b6040516103b991906122b6565b60405180910390f35b3480156103ce57600080fd5b506103e960048036038101906103e491906129ad565b611063565b6040516103f691906122b6565b60405180910390f35b34801561040b57600080fd5b50610426600480360381019061042191906129ed565b6110f7565b005b34801561043457600080fd5b5061044f600480360381019061044a91906126cf565b611198565b005b60008073ffffffffffffffffffffffffffffffffffffffff168373ffffffffffffffffffffffffffffffffffffffff16036104c1576040517f08c379a00000000000000000000000000000000000000000000000000000000081526004016104b890612af6565b60405180910390fd5b60008083815260200190815260200160002060008473ffffffffffffffffffffffffffffffffffffffff1673ffffffffffffffffffffffffffffffffffffffff16815260200190815260200160002054905092915050565b60007fd9b67a26000000000000000000000000000000000000000000000000000000007bffffffffffffffffffffffffffffffffffffffffffffffffffffffff1916827bffffffffffffffffffffffffffffffffffffffffffffffffffffffff191614806105e457507f0e89341c000000000000000000000000000000000000000000000000000000007bffffffffffffffffffffffffffffffffffffffffffffffffffffffff1916827bffffffffffffffffffffffffffffffffffffffffffffffffffffffff1916145b806105f457506105f38261121b565b5b9050919050565b60606002805461060a90612b45565b80601f016020809104026020016040519081016040528092919081815260200182805461063690612b45565b80156106835780601f1061065857610100808354040283529160200191610683565b820191906000526020600020905b81548152906001019060200180831161066657829003601f168201915b50505050509050919050565b60045481565b600073ffffffffffffffffffffffffffffffffffffffff168373ffffffffffffffffffffffffffffffffffffffff16036106ce57600080fd5b600860009054906101000a900460ff1661071d576040517f08c379a000000000000000000000000000000000000000000000000000000000815260040161071490612bc2565b60405180910390fd5b60008211610760576040517f08c379a000000000000000000000000000000000000000000000000000000000815260040161075790612c2e565b60405180910390fd5b6006548211156107a5576040517f08c379a000000000000000000000000000000000000000000000000000000000815260040161079c90612c9a565b60405180910390fd5b600554826007546107b69190612ce9565b11156107f7576040517f08c379a00000000000000000000000000000000000000000000000000000000081526004016107ee90612d69565b60405180910390fd5b6000811161083a576040517f08c379a000000000000000000000000000000000000000000000000000000000815260040161083190612dd5565b60405180910390fd5b6000818360045461084b9190612df5565b6108559190612df5565b905061085f610cfa565b73ffffffffffffffffffffffffffffffffffffffff163373ffffffffffffffffffffffffffffffffffffffff161461092e5760011515600960003373ffffffffffffffffffffffffffffffffffffffff1673ffffffffffffffffffffffffffffffffffffffff16815260200190815260200160002060009054906101000a900460ff1615151461092d578034101561092c576040517f08c379a000000000000000000000000000000000000000000000000000000000815260040161092390612e9b565b60405180910390fd5b5b5b60005b8381101561097457610961858260075461094b9190612ce9565b8560405180602001604052806000815250611285565b808061096c90612ebb565b915050610931565b5082600760008282546109879190612ce9565b9250508190555080341115610a4f5760003373ffffffffffffffffffffffffffffffffffffffff1682346109bb9190612f03565b6040516109c790612f68565b60006040518083038185875af1925050503d8060008114610a04576040519150601f19603f3d011682016040523d82523d6000602084013e610a09565b606091505b5050905080610a4d576040517f08c379a0000000000000000000000000000000000000000000000000000000008152600401610a4490612fc9565b60405180910390fd5b505b50505050565b610a5d611435565b73ffffffffffffffffffffffffffffffffffffffff168573ffffffffffffffffffffffffffffffffffffffff161480610aa35750610aa285610a9d611435565b611063565b5b610ae2576040517f08c379a0000000000000000000000000000000000000000000000000000000008152600401610ad99061305b565b60405180910390fd5b610aef858585858561143d565b5050505050565b610afe61175e565b6001600960008373ffffffffffffffffffffffffffffffffffffffff1673ffffffffffffffffffffffffffffffffffffffff16815260200190815260200160002060006101000a81548160ff02191690831515021790555050565b60608151835114610b9f576040517f08c379a0000000000000000000000000000000000000000000000000000000008152600401610b96906130ed565b60405180910390fd5b6000835167ffffffffffffffff811115610bbc57610bbb612408565b5b604051908082528060200260200182016040528015610bea5781602001602082028036833780820191505090505b50905060005b8451811015610c6757610c37858281518110610c0f57610c0e61310d565b5b6020026020010151858381518110610c2a57610c2961310d565b5b6020026020010151610451565b828281518110610c4a57610c4961310d565b5b60200260200101818152505080610c6090612ebb565b9050610bf0565b508091505092915050565b610c7a61175e565b610c8460006117dc565b565b610c8e61175e565b600860009054906101000a900460ff16610cdd576040517f08c379a0000000000000000000000000000000000000000000000000000000008152600401610cd490613188565b60405180910390fd5b6000600860006101000a81548160ff021916908315150217905550565b6000600360009054906101000a900473ffffffffffffffffffffffffffffffffffffffff16905090565b610d36610d2f611435565b83836118a2565b5050565b600073ffffffffffffffffffffffffffffffffffffffff168373ffffffffffffffffffffffffffffffffffffffff1603610d7357600080fd5b600860009054906101000a900460ff16610dc2576040517f08c379a0000000000000000000000000000000000000000000000000000000008152600401610db990612bc2565b60405180910390fd5b6007548210610e06576040517f08c379a0000000000000000000000000000000000000000000000000000000008152600401610dfd906131f4565b60405180910390fd5b60008111610e49576040517f08c379a0000000000000000000000000000000000000000000000000000000008152600401610e4090612dd5565b60405180910390fd5b600081600454610e599190612df5565b9050610e63610cfa565b73ffffffffffffffffffffffffffffffffffffffff163373ffffffffffffffffffffffffffffffffffffffff1614610ed95780341015610ed8576040517f08c379a0000000000000000000000000000000000000000000000000000000008152600401610ecf90612e9b565b60405180910390fd5b5b610ef484848460405180602001604052806000815250611285565b80341115610fb55760003373ffffffffffffffffffffffffffffffffffffffff168234610f219190612f03565b604051610f2d90612f68565b60006040518083038185875af1925050503d8060008114610f6a576040519150601f19603f3d011682016040523d82523d6000602084013e610f6f565b606091505b5050905080610fb3576040517f08c379a0000000000000000000000000000000000000000000000000000000008152600401610faa90612fc9565b60405180910390fd5b505b50505050565b600860009054906101000a900460ff1681565b610fd661175e565b600860009054906101000a900460ff1615611026576040517f08c379a000000000000000000000000000000000000000000000000000000000815260040161101d90613260565b60405180910390fd5b6001600860006101000a81548160ff021916908315150217905550565b60096020528060005260406000206000915054906101000a900460ff1681565b6000600160008473ffffffffffffffffffffffffffffffffffffffff1673ffffffffffffffffffffffffffffffffffffffff16815260200190815260200160002060008373ffffffffffffffffffffffffffffffffffffffff1673ffffffffffffffffffffffffffffffffffffffff16815260200190815260200160002060009054906101000a900460ff16905092915050565b6110ff611435565b73ffffffffffffffffffffffffffffffffffffffff168573ffffffffffffffffffffffffffffffffffffffff16148061114557506111448561113f611435565b611063565b5b611184576040517f08c379a000000000000000000000000000000000000000000000000000000000815260040161117b9061305b565b60405180910390fd5b6111918585858585611a0e565b5050505050565b6111a061175e565b600073ffffffffffffffffffffffffffffffffffffffff168173ffffffffffffffffffffffffffffffffffffffff160361120f576040517f08c379a0000000000000000000000000000000000000000000000000000000008152600401611206906132f2565b60405180910390fd5b611218816117dc565b50565b60007f01ffc9a7000000000000000000000000000000000000000000000000000000007bffffffffffffffffffffffffffffffffffffffffffffffffffffffff1916827bffffffffffffffffffffffffffffffffffffffffffffffffffffffff1916149050919050565b600073ffffffffffffffffffffffffffffffffffffffff168473ffffffffffffffffffffffffffffffffffffffff16036112f4576040517f08c379a00000000000000000000000000000000000000000000000000000000081526004016112eb90613384565b60405180910390fd5b60006112fe611435565b9050600061130b85611ca9565b9050600061131885611ca9565b905061132983600089858589611d23565b8460008088815260200190815260200160002060008973ffffffffffffffffffffffffffffffffffffffff1673ffffffffffffffffffffffffffffffffffffffff16815260200190815260200160002060008282546113889190612ce9565b925050819055508673ffffffffffffffffffffffffffffffffffffffff16600073ffffffffffffffffffffffffffffffffffffffff168473ffffffffffffffffffffffffffffffffffffffff167fc3d58168c5ae7397731d063d5bbf3d657854427343f4c083240f7aacaa2d0f6289896040516114069291906133a4565b60405180910390a461141d83600089858589611d2b565b61142c83600089898989611d33565b50505050505050565b600033905090565b8151835114611481576040517f08c379a00000000000000000000000000000000000000000000000000000000081526004016114789061343f565b60405180910390fd5b600073ffffffffffffffffffffffffffffffffffffffff168473ffffffffffffffffffffffffffffffffffffffff16036114f0576040517f08c379a00000000000000000000000000000000000000000000000000000000081526004016114e7906134d1565b60405180910390fd5b60006114fa611435565b905061150a818787878787611d23565b60005b84518110156116bb57600085828151811061152b5761152a61310d565b5b60200260200101519050600085838151811061154a5761154961310d565b5b60200260200101519050600080600084815260200190815260200160002060008b73ffffffffffffffffffffffffffffffffffffffff1673ffffffffffffffffffffffffffffffffffffffff168152602001908152602001600020549050818110156115eb576040517f08c379a00000000000000000000000000000000000000000000000000000000081526004016115e290613563565b60405180910390fd5b81810360008085815260200190815260200160002060008c73ffffffffffffffffffffffffffffffffffffffff1673ffffffffffffffffffffffffffffffffffffffff168152602001908152602001600020819055508160008085815260200190815260200160002060008b73ffffffffffffffffffffffffffffffffffffffff1673ffffffffffffffffffffffffffffffffffffffff16815260200190815260200160002060008282546116a09190612ce9565b92505081905550505050806116b490612ebb565b905061150d565b508473ffffffffffffffffffffffffffffffffffffffff168673ffffffffffffffffffffffffffffffffffffffff168273ffffffffffffffffffffffffffffffffffffffff167f4a39dc06d4c0dbc64b70af90fd698a233a518aa5d07e595d983b8c0526c8f7fb8787604051611732929190613583565b60405180910390a4611748818787878787611d2b565b611756818787878787611f0a565b505050505050565b611766611435565b73ffffffffffffffffffffffffffffffffffffffff16611784610cfa565b73ffffffffffffffffffffffffffffffffffffffff16146117da576040517f08c379a00000000000000000000000000000000000000000000000000000000081526004016117d190613606565b60405180910390fd5b565b6000600360009054906101000a900473ffffffffffffffffffffffffffffffffffffffff16905081600360006101000a81548173ffffffffffffffffffffffffffffffffffffffff021916908373ffffffffffffffffffffffffffffffffffffffff1602179055508173ffffffffffffffffffffffffffffffffffffffff168173ffffffffffffffffffffffffffffffffffffffff167f8be0079c531659141344cd1fd0a4f28419497f9722a3daafe3b4186f6b6457e060405160405180910390a35050565b8173ffffffffffffffffffffffffffffffffffffffff168373ffffffffffffffffffffffffffffffffffffffff1603611910576040517f08c379a000000000000000000000000000000000000000000000000000000000815260040161190790613698565b60405180910390fd5b80600160008573ffffffffffffffffffffffffffffffffffffffff1673ffffffffffffffffffffffffffffffffffffffff16815260200190815260200160002060008473ffffffffffffffffffffffffffffffffffffffff1673ffffffffffffffffffffffffffffffffffffffff16815260200190815260200160002060006101000a81548160ff0219169083151502179055508173ffffffffffffffffffffffffffffffffffffffff168373ffffffffffffffffffffffffffffffffffffffff167f17307eab39ab6107e8899845ad3d59bd9653f200f220920489ca2b5937696c3183604051611a0191906122b6565b60405180910390a3505050565b600073ffffffffffffffffffffffffffffffffffffffff168473ffffffffffffffffffffffffffffffffffffffff1603611a7d576040517f08c379a0000000000000000000000000000000000000000000000000000000008152600401611a74906134d1565b60405180910390fd5b6000611a87611435565b90506000611a9485611ca9565b90506000611aa185611ca9565b9050611ab1838989858589611d23565b600080600088815260200190815260200160002060008a73ffffffffffffffffffffffffffffffffffffffff1673ffffffffffffffffffffffffffffffffffffffff16815260200190815260200160002054905085811015611b48576040517f08c379a0000000000000000000000000000000000000000000000000000000008152600401611b3f90613563565b60405180910390fd5b85810360008089815260200190815260200160002060008b73ffffffffffffffffffffffffffffffffffffffff1673ffffffffffffffffffffffffffffffffffffffff168152602001908152602001600020819055508560008089815260200190815260200160002060008a73ffffffffffffffffffffffffffffffffffffffff1673ffffffffffffffffffffffffffffffffffffffff1681526020019081526020016000206000828254611bfd9190612ce9565b925050819055508773ffffffffffffffffffffffffffffffffffffffff168973ffffffffffffffffffffffffffffffffffffffff168573ffffffffffffffffffffffffffffffffffffffff167fc3d58168c5ae7397731d063d5bbf3d657854427343f4c083240f7aacaa2d0f628a8a604051611c7a9291906133a4565b60405180910390a4611c90848a8a86868a611d2b565b611c9e848a8a8a8a8a611d33565b505050505050505050565b60606000600167ffffffffffffffff811115611cc857611cc7612408565b5b604051908082528060200260200182016040528015611cf65781602001602082028036833780820191505090505b5090508281600081518110611d0e57611d0d61310d565b5b60200260200101818152505080915050919050565b505050505050565b505050505050565b611d528473ffffffffffffffffffffffffffffffffffffffff166120e1565b15611f02578373ffffffffffffffffffffffffffffffffffffffff1663f23a6e6187878686866040518663ffffffff1660e01b8152600401611d9895949392919061370d565b6020604051808303816000875af1925050508015611dd457506040513d601f19601f82011682018060405250810190611dd1919061377c565b60015b611e7957611de06137b6565b806308c379a003611e3c5750611df46137d8565b80611dff5750611e3e565b806040517f08c379a0000000000000000000000000000000000000000000000000000000008152600401611e33919061238e565b60405180910390fd5b505b6040517f08c379a0000000000000000000000000000000000000000000000000000000008152600401611e70906138da565b60405180910390fd5b63f23a6e6160e01b7bffffffffffffffffffffffffffffffffffffffffffffffffffffffff1916817bffffffffffffffffffffffffffffffffffffffffffffffffffffffff191614611f00576040517f08c379a0000000000000000000000000000000000000000000000000000000008152600401611ef79061396c565b60405180910390fd5b505b505050505050565b611f298473ffffffffffffffffffffffffffffffffffffffff166120e1565b156120d9578373ffffffffffffffffffffffffffffffffffffffff1663bc197c8187878686866040518663ffffffff1660e01b8152600401611f6f95949392919061398c565b6020604051808303816000875af1925050508015611fab57506040513d601f19601f82011682018060405250810190611fa8919061377c565b60015b61205057611fb76137b6565b806308c379a0036120135750611fcb6137d8565b80611fd65750612015565b806040517f08c379a000000000000000000000000000000000000000000000000000000000815260040161200a919061238e565b60405180910390fd5b505b6040517f08c379a0000000000000000000000000000000000000000000000000000000008152600401612047906138da565b60405180910390fd5b63bc197c8160e01b7bffffffffffffffffffffffffffffffffffffffffffffffffffffffff1916817bffffffffffffffffffffffffffffffffffffffffffffffffffffffff1916146120d7576040517f08c379a00000000000000000000000000000000000000000000000000000000081526004016120ce9061396c565b60405180910390fd5b505b505050505050565b6000808273ffffffffffffffffffffffffffffffffffffffff163b119050919050565b6000604051905090565b600080fd5b600080fd5b600073ffffffffffffffffffffffffffffffffffffffff82169050919050565b600061214382612118565b9050919050565b61215381612138565b811461215e57600080fd5b50565b6000813590506121708161214a565b92915050565b6000819050919050565b61218981612176565b811461219457600080fd5b50565b6000813590506121a681612180565b92915050565b600080604083850312156121c3576121c261210e565b5b60006121d185828601612161565b92505060206121e285828601612197565b9150509250929050565b6121f581612176565b82525050565b600060208201905061221060008301846121ec565b92915050565b60007fffffffff0000000000000000000000000000000000000000000000000000000082169050919050565b61224b81612216565b811461225657600080fd5b50565b60008135905061226881612242565b92915050565b6000602082840312156122845761228361210e565b5b600061229284828501612259565b91505092915050565b60008115159050919050565b6122b08161229b565b82525050565b60006020820190506122cb60008301846122a7565b92915050565b6000602082840312156122e7576122e661210e565b5b60006122f584828501612197565b91505092915050565b600081519050919050565b600082825260208201905092915050565b60005b8381101561233857808201518184015260208101905061231d565b60008484015250505050565b6000601f19601f8301169050919050565b6000612360826122fe565b61236a8185612309565b935061237a81856020860161231a565b61238381612344565b840191505092915050565b600060208201905081810360008301526123a88184612355565b905092915050565b6000806000606084860312156123c9576123c861210e565b5b60006123d786828701612161565b93505060206123e886828701612197565b92505060406123f986828701612197565b9150509250925092565b600080fd5b7f4e487b7100000000000000000000000000000000000000000000000000000000600052604160045260246000fd5b61244082612344565b810181811067ffffffffffffffff8211171561245f5761245e612408565b5b80604052505050565b6000612472612104565b905061247e8282612437565b919050565b600067ffffffffffffffff82111561249e5761249d612408565b5b602082029050602081019050919050565b600080fd5b60006124c76124c284612483565b612468565b905080838252602082019050602084028301858111156124ea576124e96124af565b5b835b8181101561251357806124ff8882612197565b8452602084019350506020810190506124ec565b5050509392505050565b600082601f83011261253257612531612403565b5b81356125428482602086016124b4565b91505092915050565b600080fd5b600067ffffffffffffffff82111561256b5761256a612408565b5b61257482612344565b9050602081019050919050565b82818337600083830152505050565b60006125a361259e84612550565b612468565b9050828152602081018484840111156125bf576125be61254b565b5b6125ca848285612581565b509392505050565b600082601f8301126125e7576125e6612403565b5b81356125f7848260208601612590565b91505092915050565b600080600080600060a0868803121561261c5761261b61210e565b5b600061262a88828901612161565b955050602061263b88828901612161565b945050604086013567ffffffffffffffff81111561265c5761265b612113565b5b6126688882890161251d565b935050606086013567ffffffffffffffff81111561268957612688612113565b5b6126958882890161251d565b925050608086013567ffffffffffffffff8111156126b6576126b5612113565b5b6126c2888289016125d2565b9150509295509295909350565b6000602082840312156126e5576126e461210e565b5b60006126f384828501612161565b91505092915050565b600067ffffffffffffffff82111561271757612716612408565b5b602082029050602081019050919050565b600061273b612736846126fc565b612468565b9050808382526020820190506020840283018581111561275e5761275d6124af565b5b835b8181101561278757806127738882612161565b845260208401935050602081019050612760565b5050509392505050565b600082601f8301126127a6576127a5612403565b5b81356127b6848260208601612728565b91505092915050565b600080604083850312156127d6576127d561210e565b5b600083013567ffffffffffffffff8111156127f4576127f3612113565b5b61280085828601612791565b925050602083013567ffffffffffffffff81111561282157612820612113565b5b61282d8582860161251d565b9150509250929050565b600081519050919050565b600082825260208201905092915050565b6000819050602082019050919050565b61286c81612176565b82525050565b600061287e8383612863565b60208301905092915050565b6000602082019050919050565b60006128a282612837565b6128ac8185612842565b93506128b783612853565b8060005b838110156128e85781516128cf8882612872565b97506128da8361288a565b9250506001810190506128bb565b5085935050505092915050565b6000602082019050818103600083015261290f8184612897565b905092915050565b61292081612138565b82525050565b600060208201905061293b6000830184612917565b92915050565b61294a8161229b565b811461295557600080fd5b50565b60008135905061296781612941565b92915050565b600080604083850312156129845761298361210e565b5b600061299285828601612161565b92505060206129a385828601612958565b9150509250929050565b600080604083850312156129c4576129c361210e565b5b60006129d285828601612161565b92505060206129e385828601612161565b9150509250929050565b600080600080600060a08688031215612a0957612a0861210e565b5b6000612a1788828901612161565b9550506020612a2888828901612161565b9450506040612a3988828901612197565b9350506060612a4a88828901612197565b925050608086013567ffffffffffffffff811115612a6b57612a6a612113565b5b612a77888289016125d2565b9150509295509295909350565b7f455243313135353a2061646472657373207a65726f206973206e6f742061207660008201527f616c6964206f776e657200000000000000000000000000000000000000000000602082015250565b6000612ae0602a83612309565b9150612aeb82612a84565b604082019050919050565b60006020820190508181036000830152612b0f81612ad3565b9050919050565b7f4e487b7100000000000000000000000000000000000000000000000000000000600052602260045260246000fd5b60006002820490506001821680612b5d57607f821691505b602082108103612b7057612b6f612b16565b5b50919050565b7f53616c65206e6f74206163746976650000000000000000000000000000000000600082015250565b6000612bac600f83612309565b9150612bb782612b76565b602082019050919050565b60006020820190508181036000830152612bdb81612b9f565b9050919050565b7f416d6f756e7420496473203d2030000000000000000000000000000000000000600082015250565b6000612c18600e83612309565b9150612c2382612be2565b602082019050919050565b60006020820190508181036000830152612c4781612c0b565b9050919050565b7f4578636565646564206d6178206d696e7420616d6f756e740000000000000000600082015250565b6000612c84601883612309565b9150612c8f82612c4e565b602082019050919050565b60006020820190508181036000830152612cb381612c77565b9050919050565b7f4e487b7100000000000000000000000000000000000000000000000000000000600052601160045260246000fd5b6000612cf482612176565b9150612cff83612176565b9250828201905080821115612d1757612d16612cba565b5b92915050565b7f4d696e74206c657373206e667400000000000000000000000000000000000000600082015250565b6000612d53600d83612309565b9150612d5e82612d1d565b602082019050919050565b60006020820190508181036000830152612d8281612d46565b9050919050565b7f43616e206e6f74206d696e74203020746f6b656e730000000000000000000000600082015250565b6000612dbf601583612309565b9150612dca82612d89565b602082019050919050565b60006020820190508181036000830152612dee81612db2565b9050919050565b6000612e0082612176565b9150612e0b83612176565b9250817fffffffffffffffffffffffffffffffffffffffffffffffffffffffffffffffff0483118215151615612e4457612e43612cba565b5b828202905092915050565b7f556e73756666696369656e742066756e64732073656e74000000000000000000600082015250565b6000612e85601783612309565b9150612e9082612e4f565b602082019050919050565b60006020820190508181036000830152612eb481612e78565b9050919050565b6000612ec682612176565b91507fffffffffffffffffffffffffffffffffffffffffffffffffffffffffffffffff8203612ef857612ef7612cba565b5b600182019050919050565b6000612f0e82612176565b9150612f1983612176565b9250828203905081811115612f3157612f30612cba565b5b92915050565b600081905092915050565b50565b6000612f52600083612f37565b9150612f5d82612f42565b600082019050919050565b6000612f7382612f45565b9150819050919050565b7f52657475726e2066756e647320776173206661696c6564000000000000000000600082015250565b6000612fb3601783612309565b9150612fbe82612f7d565b602082019050919050565b60006020820190508181036000830152612fe281612fa6565b9050919050565b7f455243313135353a2063616c6c6572206973206e6f7420746f6b656e206f776e60008201527f6572206e6f7220617070726f7665640000000000000000000000000000000000602082015250565b6000613045602f83612309565b915061305082612fe9565b604082019050919050565b6000602082019050818103600083015261307481613038565b9050919050565b7f455243313135353a206163636f756e747320616e6420696473206c656e67746860008201527f206d69736d617463680000000000000000000000000000000000000000000000602082015250565b60006130d7602983612309565b91506130e28261307b565b604082019050919050565b60006020820190508181036000830152613106816130ca565b9050919050565b7f4e487b7100000000000000000000000000000000000000000000000000000000600052603260045260246000fd5b7f416c726561647920706175736564000000000000000000000000000000000000600082015250565b6000613172600e83612309565b915061317d8261313c565b602082019050919050565b600060208201905081810360008301526131a181613165565b9050919050565b7f546f6b656e206973206e6f74206d696e74656400000000000000000000000000600082015250565b60006131de601383612309565b91506131e9826131a8565b602082019050919050565b6000602082019050818103600083015261320d816131d1565b9050919050565b7f416c726561647920616374697665000000000000000000000000000000000000600082015250565b600061324a600e83612309565b915061325582613214565b602082019050919050565b600060208201905081810360008301526132798161323d565b9050919050565b7f4f776e61626c653a206e6577206f776e657220697320746865207a65726f206160008201527f6464726573730000000000000000000000000000000000000000000000000000602082015250565b60006132dc602683612309565b91506132e782613280565b604082019050919050565b6000602082019050818103600083015261330b816132cf565b9050919050565b7f455243313135353a206d696e7420746f20746865207a65726f2061646472657360008201527f7300000000000000000000000000000000000000000000000000000000000000602082015250565b600061336e602183612309565b915061337982613312565b604082019050919050565b6000602082019050818103600083015261339d81613361565b9050919050565b60006040820190506133b960008301856121ec565b6133c660208301846121ec565b9392505050565b7f455243313135353a2069647320616e6420616d6f756e7473206c656e6774682060008201527f6d69736d61746368000000000000000000000000000000000000000000000000602082015250565b6000613429602883612309565b9150613434826133cd565b604082019050919050565b600060208201905081810360008301526134588161341c565b9050919050565b7f455243313135353a207472616e7366657220746f20746865207a65726f20616460008201527f6472657373000000000000000000000000000000000000000000000000000000602082015250565b60006134bb602583612309565b91506134c68261345f565b604082019050919050565b600060208201905081810360008301526134ea816134ae565b9050919050565b7f455243313135353a20696e73756666696369656e742062616c616e636520666f60008201527f72207472616e7366657200000000000000000000000000000000000000000000602082015250565b600061354d602a83612309565b9150613558826134f1565b604082019050919050565b6000602082019050818103600083015261357c81613540565b9050919050565b6000604082019050818103600083015261359d8185612897565b905081810360208301526135b18184612897565b90509392505050565b7f4f776e61626c653a2063616c6c6572206973206e6f7420746865206f776e6572600082015250565b60006135f0602083612309565b91506135fb826135ba565b602082019050919050565b6000602082019050818103600083015261361f816135e3565b9050919050565b7f455243313135353a2073657474696e6720617070726f76616c2073746174757360008201527f20666f722073656c660000000000000000000000000000000000000000000000602082015250565b6000613682602983612309565b915061368d82613626565b604082019050919050565b600060208201905081810360008301526136b181613675565b9050919050565b600081519050919050565b600082825260208201905092915050565b60006136df826136b8565b6136e981856136c3565b93506136f981856020860161231a565b61370281612344565b840191505092915050565b600060a0820190506137226000830188612917565b61372f6020830187612917565b61373c60408301866121ec565b61374960608301856121ec565b818103608083015261375b81846136d4565b90509695505050505050565b60008151905061377681612242565b92915050565b6000602082840312156137925761379161210e565b5b60006137a084828501613767565b91505092915050565b60008160e01c9050919050565b600060033d11156137d55760046000803e6137d26000516137a9565b90505b90565b600060443d10613865576137ea612104565b60043d036004823e80513d602482011167ffffffffffffffff82111715613812575050613865565b808201805167ffffffffffffffff8111156138305750505050613865565b80602083010160043d03850181111561384d575050505050613865565b61385c82602001850186612437565b82955050505050505b90565b7f455243313135353a207472616e7366657220746f206e6f6e204552433131353560008201527f526563656976657220696d706c656d656e746572000000000000000000000000602082015250565b60006138c4603483612309565b91506138cf82613868565b604082019050919050565b600060208201905081810360008301526138f3816138b7565b9050919050565b7f455243313135353a204552433131353552656365697665722072656a6563746560008201527f6420746f6b656e73000000000000000000000000000000000000000000000000602082015250565b6000613956602883612309565b9150613961826138fa565b604082019050919050565b6000602082019050818103600083015261398581613949565b9050919050565b600060a0820190506139a16000830188612917565b6139ae6020830187612917565b81810360408301526139c08186612897565b905081810360608301526139d48185612897565b905081810360808301526139e881846136d4565b9050969550505050505056fea26469706673582212206ba5db11714aa5d62083108d3c6c10ef247bf6af7820f2e8f0041b3f8ad879dd64736f6c6343000810003368747470733a2f2f62616679626569616a6933796867726733357637696e6674676c3232363362793234726e6a646e6371797170746e7834376a6d6e3734683533666d2e697066732e7733732e6c696e6b2f",
  "immutableReferences": {},
  "source": "// SPDX-License-Identifier: MIT\npragma solidity ^0.8.0;\n\nimport \"@openzeppelin/contracts/token/ERC1155/ERC1155.sol\";\nimport \"@openzeppelin/contracts/access/Ownable.sol\";\n\ncontract NFT1155 is ERC1155, Ownable {\n\n    uint256 public cost = 0.001 ether;\n    uint256 maxSupply = 20;\n    uint256 maxMintAmount = 5;\n    uint256 counter = 1;\n    bool public publicSaleActive = true;\n    mapping(address => bool) public whitelisted;\n\n    constructor() ERC1155(\"https://bafybeiaji3yhgrg35v7inftgl2263by24rnjdncqyqptnx47jmn74h53fm.ipfs.w3s.link/\") {}\n\n    function mint(\n        address to, \n        uint256 amountIds, \n        uint256 amount) \n        public \n        payable \n    {\n        require(to != address(0));\n        require(publicSaleActive, \"Sale not active\");\n        require(amountIds > 0, \"Amount Ids = 0\");\n        require(amountIds <= maxMintAmount, \"Exceeded max mint amount\");\n        require(counter + amountIds <= maxSupply, \"Mint less nft\");        \n        require(amount > 0, \"Can not mint 0 tokens\");        \n\n        uint256 mintCost = cost * amountIds * amount;\n        if (msg.sender != owner()) {\n            if(whitelisted[msg.sender] != true) {\n            require(msg.value >= mintCost, \"Unsufficient funds sent\");\n        }\n        }\n        for (uint i = 0; i < amountIds; i++) {\n            _mint(to, counter + i, amount, \"\");\n        }\n        counter += amountIds;\n\n        if (msg.value > mintCost) {\n            (bool os, ) = payable(msg.sender).call{value: msg.value - mintCost}(\"\");\n            require(os, \"Return funds was failed\");\n        }\n    }\n\n    function mintCertainMintedToken(\n        address to, \n        uint256 id, \n        uint256 amount) \n        public \n        payable \n    {\n        require(to != address(0));\n        require(publicSaleActive, \"Sale not active\");\n        require(id < counter, \"Token is not minted\");\n        require(amount > 0, \"Can not mint 0 tokens\");        \n\n        uint256 mintCost = cost * amount;\n        if (msg.sender != owner()) {\n            require(msg.value >= mintCost, \"Unsufficient funds sent\");\n        }\n        _mint(to, id, amount, \"\");\n\n        if (msg.value > mintCost) {\n            (bool os, ) = payable(msg.sender).call{value: msg.value - mintCost}(\"\");\n            require(os, \"Return funds was failed\");\n        }\n    }\n\n    function pause() public onlyOwner {\n        require(publicSaleActive, \"Already paused\");\n        publicSaleActive = false;\n    }\n\n    function start() public onlyOwner {\n        require(!publicSaleActive, \"Already active\");\n        publicSaleActive = true;\n    }\n    \n    function whitelistUser(address _user) public onlyOwner {\n        whitelisted[_user] = true;\n    }\n\n\n}",
  "sourcePath": "/Users/justagent/Desktop/programming/Blockchain/solidity-contracts/contracts/nftContract1155/contracts/NFT1155.sol",
  "compiler": {
    "name": "solc",
    "version": "0.8.16+commit.07a7930e.Emscripten.clang"
  },
  "schemaVersion": "3.4.9",
  "updatedAt": "2022-10-03T12:35:26.228Z",
  "networkType": "ethereum",
  "devdoc": {
    "kind": "dev",
    "methods": {
      "balanceOf(address,uint256)": {
        "details": "See {IERC1155-balanceOf}. Requirements: - `account` cannot be the zero address."
      },
      "balanceOfBatch(address[],uint256[])": {
        "details": "See {IERC1155-balanceOfBatch}. Requirements: - `accounts` and `ids` must have the same length."
      },
      "isApprovedForAll(address,address)": {
        "details": "See {IERC1155-isApprovedForAll}."
      },
      "owner()": {
        "details": "Returns the address of the current owner."
      },
      "renounceOwnership()": {
        "details": "Leaves the contract without owner. It will not be possible to call `onlyOwner` functions anymore. Can only be called by the current owner. NOTE: Renouncing ownership will leave the contract without an owner, thereby removing any functionality that is only available to the owner."
      },
      "safeBatchTransferFrom(address,address,uint256[],uint256[],bytes)": {
        "details": "See {IERC1155-safeBatchTransferFrom}."
      },
      "safeTransferFrom(address,address,uint256,uint256,bytes)": {
        "details": "See {IERC1155-safeTransferFrom}."
      },
      "setApprovalForAll(address,bool)": {
        "details": "See {IERC1155-setApprovalForAll}."
      },
      "supportsInterface(bytes4)": {
        "details": "See {IERC165-supportsInterface}."
      },
      "transferOwnership(address)": {
        "details": "Transfers ownership of the contract to a new account (`newOwner`). Can only be called by the current owner."
      },
      "uri(uint256)": {
        "details": "See {IERC1155MetadataURI-uri}. This implementation returns the same URI for *all* token types. It relies on the token type ID substitution mechanism https://eips.ethereum.org/EIPS/eip-1155#metadata[defined in the EIP]. Clients calling this function must replace the `\\{id\\}` substring with the actual token type ID."
      }
    },
    "version": 1
  },
  "userdoc": {
    "kind": "user",
    "methods": {},
    "version": 1
  }
}