{
  "abi": [
    {
      "inputs": [],
      "stateMutability": "nonpayable",
      "type": "constructor"
    },
    {
      "anonymous": false,
      "inputs": [
        {
          "indexed": true,
          "internalType": "address",
          "name": "owner",
          "type": "address"
        },
        {
          "indexed": true,
          "internalType": "address",
          "name": "approved",
          "type": "address"
        },
        {
          "indexed": true,
          "internalType": "uint256",
          "name": "tokenId",
          "type": "uint256"
        }
      ],
      "name": "Approval",
      "type": "event"
    },
    {
      "anonymous": false,
      "inputs": [
        {
          "indexed": true,
          "internalType": "address",
          "name": "owner",
          "type": "address"
        },
        {
          "indexed": true,
          "internalType": "address",
          "name": "operator",
          "type": "address"
        },
        {
          "indexed": false,
          "internalType": "bool",
          "name": "approved",
          "type": "bool"
        }
      ],
      "name": "ApprovalForAll",
      "type": "event"
    },
    {
      "anonymous": false,
      "inputs": [
        {
          "indexed": true,
          "internalType": "address",
          "name": "previousOwner",
          "type": "address"
        },
        {
          "indexed": true,
          "internalType": "address",
          "name": "newOwner",
          "type": "address"
        }
      ],
      "name": "OwnershipTransferred",
      "type": "event"
    },
    {
      "anonymous": false,
      "inputs": [
        {
          "indexed": true,
          "internalType": "address",
          "name": "from",
          "type": "address"
        },
        {
          "indexed": true,
          "internalType": "address",
          "name": "to",
          "type": "address"
        },
        {
          "indexed": true,
          "internalType": "uint256",
          "name": "tokenId",
          "type": "uint256"
        }
      ],
      "name": "Transfer",
      "type": "event"
    },
    {
      "inputs": [
        {
          "internalType": "address",
          "name": "to",
          "type": "address"
        },
        {
          "internalType": "uint256",
          "name": "tokenId",
          "type": "uint256"
        }
      ],
      "name": "approve",
      "outputs": [],
      "stateMutability": "nonpayable",
      "type": "function"
    },
    {
      "inputs": [
        {
          "internalType": "address",
          "name": "owner",
          "type": "address"
        }
      ],
      "name": "balanceOf",
      "outputs": [
        {
          "internalType": "uint256",
          "name": "",
          "type": "uint256"
        }
      ],
      "stateMutability": "view",
      "type": "function"
    },
    {
      "inputs": [],
      "name": "baseExtension",
      "outputs": [
        {
          "internalType": "string",
          "name": "",
          "type": "string"
        }
      ],
      "stateMutability": "view",
      "type": "function"
    },
    {
      "inputs": [],
      "name": "baseURI",
      "outputs": [
        {
          "internalType": "string",
          "name": "",
          "type": "string"
        }
      ],
      "stateMutability": "view",
      "type": "function"
    },
    {
      "inputs": [],
      "name": "cost",
      "outputs": [
        {
          "internalType": "uint256",
          "name": "",
          "type": "uint256"
        }
      ],
      "stateMutability": "view",
      "type": "function"
    },
    {
      "inputs": [
        {
          "internalType": "uint256",
          "name": "tokenId",
          "type": "uint256"
        }
      ],
      "name": "getApproved",
      "outputs": [
        {
          "internalType": "address",
          "name": "",
          "type": "address"
        }
      ],
      "stateMutability": "view",
      "type": "function"
    },
    {
      "inputs": [
        {
          "internalType": "address",
          "name": "owner",
          "type": "address"
        },
        {
          "internalType": "address",
          "name": "operator",
          "type": "address"
        }
      ],
      "name": "isApprovedForAll",
      "outputs": [
        {
          "internalType": "bool",
          "name": "",
          "type": "bool"
        }
      ],
      "stateMutability": "view",
      "type": "function"
    },
    {
      "inputs": [],
      "name": "maxMintAmount",
      "outputs": [
        {
          "internalType": "uint256",
          "name": "",
          "type": "uint256"
        }
      ],
      "stateMutability": "view",
      "type": "function"
    },
    {
      "inputs": [],
      "name": "maxSupply",
      "outputs": [
        {
          "internalType": "uint256",
          "name": "",
          "type": "uint256"
        }
      ],
      "stateMutability": "view",
      "type": "function"
    },
    {
      "inputs": [
        {
          "internalType": "address",
          "name": "_to",
          "type": "address"
        },
        {
          "internalType": "uint256",
          "name": "_mintAmount",
          "type": "uint256"
        }
      ],
      "name": "mint",
      "outputs": [],
      "stateMutability": "nonpayable",
      "type": "function"
    },
    {
      "inputs": [],
      "name": "name",
      "outputs": [
        {
          "internalType": "string",
          "name": "",
          "type": "string"
        }
      ],
      "stateMutability": "view",
      "type": "function"
    },
    {
      "inputs": [],
      "name": "owner",
      "outputs": [
        {
          "internalType": "address",
          "name": "",
          "type": "address"
        }
      ],
      "stateMutability": "view",
      "type": "function"
    },
    {
      "inputs": [
        {
          "internalType": "uint256",
          "name": "tokenId",
          "type": "uint256"
        }
      ],
      "name": "ownerOf",
      "outputs": [
        {
          "internalType": "address",
          "name": "",
          "type": "address"
        }
      ],
      "stateMutability": "view",
      "type": "function"
    },
    {
      "inputs": [],
      "name": "pause",
      "outputs": [],
      "stateMutability": "nonpayable",
      "type": "function"
    },
    {
      "inputs": [],
      "name": "publicSaleActive",
      "outputs": [
        {
          "internalType": "bool",
          "name": "",
          "type": "bool"
        }
      ],
      "stateMutability": "view",
      "type": "function"
    },
    {
      "inputs": [
        {
          "internalType": "address",
          "name": "_user",
          "type": "address"
        }
      ],
      "name": "removeWhitelistUser",
      "outputs": [],
      "stateMutability": "nonpayable",
      "type": "function"
    },
    {
      "inputs": [],
      "name": "renounceOwnership",
      "outputs": [],
      "stateMutability": "nonpayable",
      "type": "function"
    },
    {
      "inputs": [
        {
          "internalType": "address",
          "name": "from",
          "type": "address"
        },
        {
          "internalType": "address",
          "name": "to",
          "type": "address"
        },
        {
          "internalType": "uint256",
          "name": "tokenId",
          "type": "uint256"
        }
      ],
      "name": "safeTransferFrom",
      "outputs": [],
      "stateMutability": "nonpayable",
      "type": "function"
    },
    {
      "inputs": [
        {
          "internalType": "address",
          "name": "from",
          "type": "address"
        },
        {
          "internalType": "address",
          "name": "to",
          "type": "address"
        },
        {
          "internalType": "uint256",
          "name": "tokenId",
          "type": "uint256"
        },
        {
          "internalType": "bytes",
          "name": "data",
          "type": "bytes"
        }
      ],
      "name": "safeTransferFrom",
      "outputs": [],
      "stateMutability": "nonpayable",
      "type": "function"
    },
    {
      "inputs": [
        {
          "internalType": "address",
          "name": "operator",
          "type": "address"
        },
        {
          "internalType": "bool",
          "name": "approved",
          "type": "bool"
        }
      ],
      "name": "setApprovalForAll",
      "outputs": [],
      "stateMutability": "nonpayable",
      "type": "function"
    },
    {
      "inputs": [
        {
          "internalType": "string",
          "name": "_newBaseExtension",
          "type": "string"
        }
      ],
      "name": "setBaseExtension",
      "outputs": [],
      "stateMutability": "nonpayable",
      "type": "function"
    },
    {
      "inputs": [
        {
          "internalType": "string",
          "name": "_newBaseURI",
          "type": "string"
        }
      ],
      "name": "setBaseURI",
      "outputs": [],
      "stateMutability": "nonpayable",
      "type": "function"
    },
    {
      "inputs": [
        {
          "internalType": "uint256",
          "name": "_newCost",
          "type": "uint256"
        }
      ],
      "name": "setCost",
      "outputs": [],
      "stateMutability": "nonpayable",
      "type": "function"
    },
    {
      "inputs": [
        {
          "internalType": "uint256",
          "name": "_newmaxMintAmount",
          "type": "uint256"
        }
      ],
      "name": "setmaxMintAmount",
      "outputs": [],
      "stateMutability": "nonpayable",
      "type": "function"
    },
    {
      "inputs": [],
      "name": "start",
      "outputs": [],
      "stateMutability": "nonpayable",
      "type": "function"
    },
    {
      "inputs": [
        {
          "internalType": "bytes4",
          "name": "interfaceId",
          "type": "bytes4"
        }
      ],
      "name": "supportsInterface",
      "outputs": [
        {
          "internalType": "bool",
          "name": "",
          "type": "bool"
        }
      ],
      "stateMutability": "view",
      "type": "function"
    },
    {
      "inputs": [],
      "name": "symbol",
      "outputs": [
        {
          "internalType": "string",
          "name": "",
          "type": "string"
        }
      ],
      "stateMutability": "view",
      "type": "function"
    },
    {
      "inputs": [
        {
          "internalType": "uint256",
          "name": "index",
          "type": "uint256"
        }
      ],
      "name": "tokenByIndex",
      "outputs": [
        {
          "internalType": "uint256",
          "name": "",
          "type": "uint256"
        }
      ],
      "stateMutability": "view",
      "type": "function"
    },
    {
      "inputs": [
        {
          "internalType": "address",
          "name": "owner",
          "type": "address"
        },
        {
          "internalType": "uint256",
          "name": "index",
          "type": "uint256"
        }
      ],
      "name": "tokenOfOwnerByIndex",
      "outputs": [
        {
          "internalType": "uint256",
          "name": "",
          "type": "uint256"
        }
      ],
      "stateMutability": "view",
      "type": "function"
    },
    {
      "inputs": [
        {
          "internalType": "uint256",
          "name": "tokenId",
          "type": "uint256"
        }
      ],
      "name": "tokenURI",
      "outputs": [
        {
          "internalType": "string",
          "name": "",
          "type": "string"
        }
      ],
      "stateMutability": "view",
      "type": "function"
    },
    {
      "inputs": [],
      "name": "totalSupply",
      "outputs": [
        {
          "internalType": "uint256",
          "name": "",
          "type": "uint256"
        }
      ],
      "stateMutability": "view",
      "type": "function"
    },
    {
      "inputs": [
        {
          "internalType": "address",
          "name": "from",
          "type": "address"
        },
        {
          "internalType": "address",
          "name": "to",
          "type": "address"
        },
        {
          "internalType": "uint256",
          "name": "tokenId",
          "type": "uint256"
        }
      ],
      "name": "transferFrom",
      "outputs": [],
      "stateMutability": "nonpayable",
      "type": "function"
    },
    {
      "inputs": [
        {
          "internalType": "address",
          "name": "newOwner",
          "type": "address"
        }
      ],
      "name": "transferOwnership",
      "outputs": [],
      "stateMutability": "nonpayable",
      "type": "function"
    },
    {
      "inputs": [
        {
          "internalType": "address",
          "name": "_user",
          "type": "address"
        }
      ],
      "name": "whitelistUser",
      "outputs": [],
      "stateMutability": "nonpayable",
      "type": "function"
    },
    {
      "inputs": [
        {
          "internalType": "address",
          "name": "",
          "type": "address"
        }
      ],
      "name": "whitelisted",
      "outputs": [
        {
          "internalType": "bool",
          "name": "",
          "type": "bool"
        }
      ],
      "stateMutability": "view",
      "type": "function"
    },
    {
      "inputs": [],
      "name": "withdraw",
      "outputs": [],
      "stateMutability": "payable",
      "type": "function"
    }
  ],
  "bytecode": {
    "object": "0x60c06040526005608090815264173539b7b760d91b60a052600c906200002690826200026f565b5066038d7ea4c68000600d55600a600e819055600f556010805460ff191690553480156200005357600080fd5b506040518060400160405280600781526020016614d1505413d49560ca1b8152506040518060400160405280600381526020016253503160e81b8152508160009081620000a191906200026f565b506001620000b082826200026f565b505050620000cd620000c7620000f760201b60201c565b620000fb565b620000f16040518060800160405280605281526020016200260f605291396200014d565b6200033b565b3390565b600a80546001600160a01b038381166001600160a01b0319831681179093556040519116919082907f8be0079c531659141344cd1fd0a4f28419497f9722a3daafe3b4186f6b6457e090600090a35050565b6200015762000169565b600b6200016582826200026f565b5050565b600a546001600160a01b03163314620001c85760405162461bcd60e51b815260206004820181905260248201527f4f776e61626c653a2063616c6c6572206973206e6f7420746865206f776e6572604482015260640160405180910390fd5b565b634e487b7160e01b600052604160045260246000fd5b600181811c90821680620001f557607f821691505b6020821081036200021657634e487b7160e01b600052602260045260246000fd5b50919050565b601f8211156200026a57600081815260208120601f850160051c81016020861015620002455750805b601f850160051c820191505b81811015620002665782815560010162000251565b5050505b505050565b81516001600160401b038111156200028b576200028b620001ca565b620002a3816200029c8454620001e0565b846200021c565b602080601f831160018114620002db5760008415620002c25750858301515b600019600386901b1c1916600185901b17855562000266565b600085815260208120601f198616915b828110156200030c57888601518255948401946001909101908401620002eb565b50858210156200032b5787850151600019600388901b60f8161c191681555b5050505050600190811b01905550565b6122c4806200034b6000396000f3fe60806040526004361061020f5760003560e01c80636c0360eb11610118578063bc8893b4116100a0578063d5abeb011161006f578063d5abeb01146105b2578063d936547e146105c8578063da3ef23f146105f8578063e985e9c514610618578063f2fde38b1461066157600080fd5b8063bc8893b41461054e578063be9a655514610568578063c66828621461057d578063c87b56dd1461059257600080fd5b80638456cb59116100e75780638456cb59146104c65780638da5cb5b146104db57806395d89b41146104f9578063a22cb4651461050e578063b88d4fde1461052e57600080fd5b80636c0360eb1461045c57806370a0823114610471578063715018a6146104915780637f00c7a6146104a657600080fd5b806330cc7ae01161019b57806344a0d68a1161016a57806344a0d68a146103bc5780634a4c560d146103dc5780634f6ccce7146103fc57806355f804b31461041c5780636352211e1461043c57600080fd5b806330cc7ae0146103545780633ccfd60b1461037457806340c10f191461037c57806342842e0e1461039c57600080fd5b806313faede6116101e257806313faede6146102c557806318160ddd146102e9578063239c70ae146102fe57806323b872dd146103145780632f745c591461033457600080fd5b806301ffc9a71461021457806306fdde0314610249578063081812fc1461026b578063095ea7b3146102a3575b600080fd5b34801561022057600080fd5b5061023461022f366004611bf1565b610681565b60405190151581526020015b60405180910390f35b34801561025557600080fd5b5061025e6106ac565b6040516102409190611c5e565b34801561027757600080fd5b5061028b610286366004611c71565b61073e565b6040516001600160a01b039091168152602001610240565b3480156102af57600080fd5b506102c36102be366004611ca6565b610765565b005b3480156102d157600080fd5b506102db600d5481565b604051908152602001610240565b3480156102f557600080fd5b506008546102db565b34801561030a57600080fd5b506102db600f5481565b34801561032057600080fd5b506102c361032f366004611cd0565b61087f565b34801561034057600080fd5b506102db61034f366004611ca6565b6108b0565b34801561036057600080fd5b506102c361036f366004611d0c565b610946565b6102c361096f565b34801561038857600080fd5b506102c3610397366004611ca6565b6109eb565b3480156103a857600080fd5b506102c36103b7366004611cd0565b610a61565b3480156103c857600080fd5b506102c36103d7366004611c71565b610a7c565b3480156103e857600080fd5b506102c36103f7366004611d0c565b610a89565b34801561040857600080fd5b506102db610417366004611c71565b610ab5565b34801561042857600080fd5b506102c3610437366004611db3565b610b48565b34801561044857600080fd5b5061028b610457366004611c71565b610b60565b34801561046857600080fd5b5061025e610bc0565b34801561047d57600080fd5b506102db61048c366004611d0c565b610c4e565b34801561049d57600080fd5b506102c3610cd4565b3480156104b257600080fd5b506102c36104c1366004611c71565b610ce8565b3480156104d257600080fd5b506102c3610cf5565b3480156104e757600080fd5b50600a546001600160a01b031661028b565b34801561050557600080fd5b5061025e610d4c565b34801561051a57600080fd5b506102c3610529366004611dfc565b610d5b565b34801561053a57600080fd5b506102c3610549366004611e38565b610d66565b34801561055a57600080fd5b506010546102349060ff1681565b34801561057457600080fd5b506102c3610d98565b34801561058957600080fd5b5061025e610df3565b34801561059e57600080fd5b5061025e6105ad366004611c71565b610e00565b3480156105be57600080fd5b506102db600e5481565b3480156105d457600080fd5b506102346105e3366004611d0c565b60116020526000908152604090205460ff1681565b34801561060457600080fd5b506102c3610613366004611db3565b610ede565b34801561062457600080fd5b50610234610633366004611eb4565b6001600160a01b03918216600090815260056020908152604080832093909416825291909152205460ff1690565b34801561066d57600080fd5b506102c361067c366004611d0c565b610ef2565b60006001600160e01b0319821663780e9d6360e01b14806106a657506106a682610f68565b92915050565b6060600080546106bb90611ee7565b80601f01602080910402602001604051908101604052809291908181526020018280546106e790611ee7565b80156107345780601f1061070957610100808354040283529160200191610734565b820191906000526020600020905b81548152906001019060200180831161071757829003601f168201915b5050505050905090565b600061074982610fb8565b506000908152600460205260409020546001600160a01b031690565b600061077082610b60565b9050806001600160a01b0316836001600160a01b0316036107e25760405162461bcd60e51b815260206004820152602160248201527f4552433732313a20617070726f76616c20746f2063757272656e74206f776e656044820152603960f91b60648201526084015b60405180910390fd5b336001600160a01b03821614806107fe57506107fe8133610633565b6108705760405162461bcd60e51b815260206004820152603d60248201527f4552433732313a20617070726f76652063616c6c6572206973206e6f7420746f60448201527f6b656e206f776e6572206f7220617070726f76656420666f7220616c6c00000060648201526084016107d9565b61087a8383611017565b505050565b6108893382611085565b6108a55760405162461bcd60e51b81526004016107d990611f21565b61087a838383611104565b60006108bb83610c4e565b821061091d5760405162461bcd60e51b815260206004820152602b60248201527f455243373231456e756d657261626c653a206f776e657220696e646578206f7560448201526a74206f6620626f756e647360a81b60648201526084016107d9565b506001600160a01b03919091166000908152600660209081526040808320938352929052205490565b61094e611275565b6001600160a01b03166000908152601160205260409020805460ff19169055565b610977611275565b600061098b600a546001600160a01b031690565b6001600160a01b03164760405160006040518083038185875af1925050503d80600081146109d5576040519150601f19603f3d011682016040523d82523d6000602084013e6109da565b606091505b50509050806109e857600080fd5b50565b60006109f660085490565b905060008211610a0557600080fd5b600f54821115610a1457600080fd5b600e54610a218383611f84565b1115610a2c57600080fd5b60015b828111610a5b57610a4984610a448385611f84565b6112cf565b80610a5381611f97565b915050610a2f565b50505050565b61087a83838360405180602001604052806000815250610d66565b610a84611275565b600d55565b610a91611275565b6001600160a01b03166000908152601160205260409020805460ff19166001179055565b6000610ac060085490565b8210610b235760405162461bcd60e51b815260206004820152602c60248201527f455243373231456e756d657261626c653a20676c6f62616c20696e646578206f60448201526b7574206f6620626f756e647360a01b60648201526084016107d9565b60088281548110610b3657610b36611fb0565b90600052602060002001549050919050565b610b50611275565b600b610b5c8282612014565b5050565b6000818152600260205260408120546001600160a01b0316806106a65760405162461bcd60e51b8152602060048201526018602482015277115490cdcc8c4e881a5b9d985b1a59081d1bdad95b88125160421b60448201526064016107d9565b600b8054610bcd90611ee7565b80601f0160208091040260200160405190810160405280929190818152602001828054610bf990611ee7565b8015610c465780601f10610c1b57610100808354040283529160200191610c46565b820191906000526020600020905b815481529060010190602001808311610c2957829003601f168201915b505050505081565b60006001600160a01b038216610cb85760405162461bcd60e51b815260206004820152602960248201527f4552433732313a2061646472657373207a65726f206973206e6f7420612076616044820152683634b21037bbb732b960b91b60648201526084016107d9565b506001600160a01b031660009081526003602052604090205490565b610cdc611275565b610ce660006112e9565b565b610cf0611275565b600f55565b610cfd611275565b60105460ff16610d405760405162461bcd60e51b815260206004820152600e60248201526d105b1c9958591e481c185d5cd95960921b60448201526064016107d9565b6010805460ff19169055565b6060600180546106bb90611ee7565b610b5c33838361133b565b610d703383611085565b610d8c5760405162461bcd60e51b81526004016107d990611f21565b610a5b84848484611409565b610da0611275565b60105460ff1615610de45760405162461bcd60e51b815260206004820152600e60248201526d416c72656164792061637469766560901b60448201526064016107d9565b6010805460ff19166001179055565b600c8054610bcd90611ee7565b6000818152600260205260409020546060906001600160a01b0316610e7f5760405162461bcd60e51b815260206004820152602f60248201527f4552433732314d657461646174613a2055524920717565727920666f72206e6f60448201526e3732bc34b9ba32b73a103a37b5b2b760891b60648201526084016107d9565b6000610e8961143c565b90506000815111610ea95760405180602001604052806000815250610ed7565b80610eb38461144b565b600c604051602001610ec7939291906120d4565b6040516020818303038152906040525b9392505050565b610ee6611275565b600c610b5c8282612014565b610efa611275565b6001600160a01b038116610f5f5760405162461bcd60e51b815260206004820152602660248201527f4f776e61626c653a206e6577206f776e657220697320746865207a65726f206160448201526564647265737360d01b60648201526084016107d9565b6109e8816112e9565b60006001600160e01b031982166380ac58cd60e01b1480610f9957506001600160e01b03198216635b5e139f60e01b145b806106a657506301ffc9a760e01b6001600160e01b03198316146106a6565b6000818152600260205260409020546001600160a01b03166109e85760405162461bcd60e51b8152602060048201526018602482015277115490cdcc8c4e881a5b9d985b1a59081d1bdad95b88125160421b60448201526064016107d9565b600081815260046020526040902080546001600160a01b0319166001600160a01b038416908117909155819061104c82610b60565b6001600160a01b03167f8c5be1e5ebec7d5bd14f71427d1e84f3dd0314c0f7b2291e5b200ac8c7c3b92560405160405180910390a45050565b60008061109183610b60565b9050806001600160a01b0316846001600160a01b031614806110d857506001600160a01b0380821660009081526005602090815260408083209388168352929052205460ff165b806110fc5750836001600160a01b03166110f18461073e565b6001600160a01b0316145b949350505050565b826001600160a01b031661111782610b60565b6001600160a01b03161461113d5760405162461bcd60e51b81526004016107d990612174565b6001600160a01b03821661119f5760405162461bcd60e51b8152602060048201526024808201527f4552433732313a207472616e7366657220746f20746865207a65726f206164646044820152637265737360e01b60648201526084016107d9565b6111ac83838360016114de565b826001600160a01b03166111bf82610b60565b6001600160a01b0316146111e55760405162461bcd60e51b81526004016107d990612174565b600081815260046020908152604080832080546001600160a01b03199081169091556001600160a01b0387811680865260038552838620805460001901905590871680865283862080546001019055868652600290945282852080549092168417909155905184937fddf252ad1be2c89b69c2b068fc378daa952ba7f163c4a11628f55a4df523b3ef91a4505050565b600a546001600160a01b03163314610ce65760405162461bcd60e51b815260206004820181905260248201527f4f776e61626c653a2063616c6c6572206973206e6f7420746865206f776e657260448201526064016107d9565b610b5c82826040518060200160405280600081525061161e565b600a80546001600160a01b038381166001600160a01b0319831681179093556040519116919082907f8be0079c531659141344cd1fd0a4f28419497f9722a3daafe3b4186f6b6457e090600090a35050565b816001600160a01b0316836001600160a01b03160361139c5760405162461bcd60e51b815260206004820152601960248201527f4552433732313a20617070726f766520746f2063616c6c65720000000000000060448201526064016107d9565b6001600160a01b03838116600081815260056020908152604080832094871680845294825291829020805460ff191686151590811790915591519182527f17307eab39ab6107e8899845ad3d59bd9653f200f220920489ca2b5937696c31910160405180910390a3505050565b611414848484611104565b61142084848484611651565b610a5b5760405162461bcd60e51b81526004016107d9906121b9565b6060600b80546106bb90611ee7565b6060600061145883611752565b600101905060008167ffffffffffffffff81111561147857611478611d27565b6040519080825280601f01601f1916602001820160405280156114a2576020820181803683370190505b5090508181016020015b600019016f181899199a1a9b1b9c1cb0b131b232b360811b600a86061a8153600a85049450846114ac57509392505050565b6114ea8484848461182a565b60018111156115595760405162461bcd60e51b815260206004820152603560248201527f455243373231456e756d657261626c653a20636f6e7365637574697665207472604482015274185b9cd9995c9cc81b9bdd081cdd5c1c1bdc9d1959605a1b60648201526084016107d9565b816001600160a01b0385166115b5576115b081600880546000838152600960205260408120829055600182018355919091527ff3f7a9fe364faab93b216da50a3214154f22a0a2b415b23a84c8169e8b636ee30155565b6115d8565b836001600160a01b0316856001600160a01b0316146115d8576115d885826118b2565b6001600160a01b0384166115f4576115ef8161194f565b611617565b846001600160a01b0316846001600160a01b0316146116175761161784826119fe565b5050505050565b6116288383611a42565b6116356000848484611651565b61087a5760405162461bcd60e51b81526004016107d9906121b9565b60006001600160a01b0384163b1561174757604051630a85bd0160e11b81526001600160a01b0385169063150b7a029061169590339089908890889060040161220b565b6020604051808303816000875af19250505080156116d0575060408051601f3d908101601f191682019092526116cd91810190612248565b60015b61172d573d8080156116fe576040519150601f19603f3d011682016040523d82523d6000602084013e611703565b606091505b5080516000036117255760405162461bcd60e51b81526004016107d9906121b9565b805181602001fd5b6001600160e01b031916630a85bd0160e11b1490506110fc565b506001949350505050565b60008072184f03e93ff9f4daa797ed6e38ed64bf6a1f0160401b83106117915772184f03e93ff9f4daa797ed6e38ed64bf6a1f0160401b830492506040015b6d04ee2d6d415b85acef810000000083106117bd576d04ee2d6d415b85acef8100000000830492506020015b662386f26fc1000083106117db57662386f26fc10000830492506010015b6305f5e10083106117f3576305f5e100830492506008015b612710831061180757612710830492506004015b60648310611819576064830492506002015b600a83106106a65760010192915050565b6001811115610a5b576001600160a01b03841615611870576001600160a01b0384166000908152600360205260408120805483929061186a908490612265565b90915550505b6001600160a01b03831615610a5b576001600160a01b038316600090815260036020526040812080548392906118a7908490611f84565b909155505050505050565b600060016118bf84610c4e565b6118c99190612265565b60008381526007602052604090205490915080821461191c576001600160a01b03841660009081526006602090815260408083208584528252808320548484528184208190558352600790915290208190555b5060009182526007602090815260408084208490556001600160a01b039094168352600681528383209183525290812055565b60085460009061196190600190612265565b6000838152600960205260408120546008805493945090928490811061198957611989611fb0565b9060005260206000200154905080600883815481106119aa576119aa611fb0565b60009182526020808320909101929092558281526009909152604080822084905585825281205560088054806119e2576119e2612278565b6001900381819060005260206000200160009055905550505050565b6000611a0983610c4e565b6001600160a01b039093166000908152600660209081526040808320868452825280832085905593825260079052919091209190915550565b6001600160a01b038216611a985760405162461bcd60e51b815260206004820181905260248201527f4552433732313a206d696e7420746f20746865207a65726f206164647265737360448201526064016107d9565b6000818152600260205260409020546001600160a01b031615611afd5760405162461bcd60e51b815260206004820152601c60248201527f4552433732313a20746f6b656e20616c7265616479206d696e7465640000000060448201526064016107d9565b611b0b6000838360016114de565b6000818152600260205260409020546001600160a01b031615611b705760405162461bcd60e51b815260206004820152601c60248201527f4552433732313a20746f6b656e20616c7265616479206d696e7465640000000060448201526064016107d9565b6001600160a01b038216600081815260036020908152604080832080546001019055848352600290915280822080546001600160a01b0319168417905551839291907fddf252ad1be2c89b69c2b068fc378daa952ba7f163c4a11628f55a4df523b3ef908290a45050565b6001600160e01b0319811681146109e857600080fd5b600060208284031215611c0357600080fd5b8135610ed781611bdb565b60005b83811015611c29578181015183820152602001611c11565b50506000910152565b60008151808452611c4a816020860160208601611c0e565b601f01601f19169290920160200192915050565b602081526000610ed76020830184611c32565b600060208284031215611c8357600080fd5b5035919050565b80356001600160a01b0381168114611ca157600080fd5b919050565b60008060408385031215611cb957600080fd5b611cc283611c8a565b946020939093013593505050565b600080600060608486031215611ce557600080fd5b611cee84611c8a565b9250611cfc60208501611c8a565b9150604084013590509250925092565b600060208284031215611d1e57600080fd5b610ed782611c8a565b634e487b7160e01b600052604160045260246000fd5b600067ffffffffffffffff80841115611d5857611d58611d27565b604051601f8501601f19908116603f01168101908282118183101715611d8057611d80611d27565b81604052809350858152868686011115611d9957600080fd5b858560208301376000602087830101525050509392505050565b600060208284031215611dc557600080fd5b813567ffffffffffffffff811115611ddc57600080fd5b8201601f81018413611ded57600080fd5b6110fc84823560208401611d3d565b60008060408385031215611e0f57600080fd5b611e1883611c8a565b915060208301358015158114611e2d57600080fd5b809150509250929050565b60008060008060808587031215611e4e57600080fd5b611e5785611c8a565b9350611e6560208601611c8a565b925060408501359150606085013567ffffffffffffffff811115611e8857600080fd5b8501601f81018713611e9957600080fd5b611ea887823560208401611d3d565b91505092959194509250565b60008060408385031215611ec757600080fd5b611ed083611c8a565b9150611ede60208401611c8a565b90509250929050565b600181811c90821680611efb57607f821691505b602082108103611f1b57634e487b7160e01b600052602260045260246000fd5b50919050565b6020808252602d908201527f4552433732313a2063616c6c6572206973206e6f7420746f6b656e206f776e6560408201526c1c881bdc88185c1c1c9bdd9959609a1b606082015260800190565b634e487b7160e01b600052601160045260246000fd5b808201808211156106a6576106a6611f6e565b600060018201611fa957611fa9611f6e565b5060010190565b634e487b7160e01b600052603260045260246000fd5b601f82111561087a57600081815260208120601f850160051c81016020861015611fed5750805b601f850160051c820191505b8181101561200c57828155600101611ff9565b505050505050565b815167ffffffffffffffff81111561202e5761202e611d27565b6120428161203c8454611ee7565b84611fc6565b602080601f831160018114612077576000841561205f5750858301515b600019600386901b1c1916600185901b17855561200c565b600085815260208120601f198616915b828110156120a657888601518255948401946001909101908401612087565b50858210156120c45787850151600019600388901b60f8161c191681555b5050505050600190811b01905550565b6000845160206120e78285838a01611c0e565b8551918401916120fa8184848a01611c0e565b855492019160009061210b81611ee7565b60018281168015612123576001811461213857612164565b60ff1984168752821515830287019450612164565b896000528560002060005b8481101561215c57815489820152908301908701612143565b505082870194505b50929a9950505050505050505050565b60208082526025908201527f4552433732313a207472616e736665722066726f6d20696e636f72726563742060408201526437bbb732b960d91b606082015260800190565b60208082526032908201527f4552433732313a207472616e7366657220746f206e6f6e20455243373231526560408201527131b2b4bb32b91034b6b83632b6b2b73a32b960711b606082015260800190565b6001600160a01b038581168252841660208201526040810183905260806060820181905260009061223e90830184611c32565b9695505050505050565b60006020828403121561225a57600080fd5b8151610ed781611bdb565b818103818111156106a6576106a6611f6e565b634e487b7160e01b600052603160045260246000fdfea264697066735822122017bf2933c4e4065ff9c23990ed07e006488654741ad70bb8b1c63886bd2827ce64736f6c6343000811003368747470733a2f2f62616679626569616f6e37736c3636637967766b6f776e77366464796875667a323369687773736d6337346d767a65786b7667647766726a7472792e697066732e7733732e6c696e6b2f",
    "linkReferences": {}
  },
  "methodIdentifiers": {
    "approve(address,uint256)": "095ea7b3",
    "balanceOf(address)": "70a08231",
    "baseExtension()": "c6682862",
    "baseURI()": "6c0360eb",
    "cost()": "13faede6",
    "getApproved(uint256)": "081812fc",
    "isApprovedForAll(address,address)": "e985e9c5",
    "maxMintAmount()": "239c70ae",
    "maxSupply()": "d5abeb01",
    "mint(address,uint256)": "40c10f19",
    "name()": "06fdde03",
    "owner()": "8da5cb5b",
    "ownerOf(uint256)": "6352211e",
    "pause()": "8456cb59",
    "publicSaleActive()": "bc8893b4",
    "removeWhitelistUser(address)": "30cc7ae0",
    "renounceOwnership()": "715018a6",
    "safeTransferFrom(address,address,uint256)": "42842e0e",
    "safeTransferFrom(address,address,uint256,bytes)": "b88d4fde",
    "setApprovalForAll(address,bool)": "a22cb465",
    "setBaseExtension(string)": "da3ef23f",
    "setBaseURI(string)": "55f804b3",
    "setCost(uint256)": "44a0d68a",
    "setmaxMintAmount(uint256)": "7f00c7a6",
    "start()": "be9a6555",
    "supportsInterface(bytes4)": "01ffc9a7",
    "symbol()": "95d89b41",
    "tokenByIndex(uint256)": "4f6ccce7",
    "tokenOfOwnerByIndex(address,uint256)": "2f745c59",
    "tokenURI(uint256)": "c87b56dd",
    "totalSupply()": "18160ddd",
    "transferFrom(address,address,uint256)": "23b872dd",
    "transferOwnership(address)": "f2fde38b",
    "whitelistUser(address)": "4a4c560d",
    "whitelisted(address)": "d936547e",
    "withdraw()": "3ccfd60b"
  },
  "id": 20
}